{
  "_format": "hh-sol-artifact-1",
  "contractName": "EscrowFactory",
  "sourceName": "contracts/EscrowFactory.sol",
  "abi": [
    {
      "anonymous": false,
      "inputs": [
        {
          "indexed": true,
          "internalType": "contract Escrow",
          "name": "newEscrow",
          "type": "address"
        }
      ],
      "name": "CreatedNewEscrow",
      "type": "event"
    },
    {
      "inputs": [
        {
          "internalType": "contract ERC20",
          "name": "_paymentToken",
          "type": "address"
        },
        {
          "internalType": "uint256",
          "name": "_numberOfTasks",
          "type": "uint256"
        },
        {
          "internalType": "address",
          "name": "_requester",
          "type": "address"
        }
      ],
      "name": "createNewEscrow",
      "outputs": [],
      "stateMutability": "nonpayable",
      "type": "function"
    },
    {
      "inputs": [
        {
          "internalType": "uint256",
          "name": "",
          "type": "uint256"
        }
      ],
      "name": "escrowArray",
      "outputs": [
        {
          "internalType": "contract Escrow",
          "name": "",
          "type": "address"
        }
      ],
      "stateMutability": "view",
      "type": "function"
    },
    {
      "inputs": [],
      "name": "escrowArrayLength",
      "outputs": [
        {
          "internalType": "uint256",
          "name": "",
          "type": "uint256"
        }
      ],
      "stateMutability": "view",
      "type": "function"
    }
  ],
  "bytecode": "0x608060405234801561001057600080fd5b50611eef806100206000396000f3fe60806040523480156200001157600080fd5b5060043610620000465760003560e01c80638e1ea759146200004b57806392376e44146200006b578063d4e08ed414620000a1575b600080fd5b62000069600480360381019062000063919062000308565b620000c3565b005b62000089600480360381019062000083919062000364565b620001ca565b60405162000098919062000401565b60405180910390f35b620000ab6200020a565b604051620000ba91906200042f565b60405180910390f35b6000838383604051620000d69062000210565b620000e49392919062000482565b604051809103906000f08015801562000101573d6000803e3d6000fd5b5090506000819080600181540180825580915050600190039060005260206000200160009091909190916101000a81548173ffffffffffffffffffffffffffffffffffffffff021916908373ffffffffffffffffffffffffffffffffffffffff160217905550600160008154809291906200017c90620004ee565b91905055508073ffffffffffffffffffffffffffffffffffffffff167f628ec71710e3c8e44ee9bb9db1ab1927cca0739098f088667360b387b2ff3b0b60405160405180910390a250505050565b60008181548110620001db57600080fd5b906000526020600020016000915054906101000a900473ffffffffffffffffffffffffffffffffffffffff1681565b60015481565b61197d806200053d83390190565b600080fd5b600073ffffffffffffffffffffffffffffffffffffffff82169050919050565b6000620002508262000223565b9050919050565b6000620002648262000243565b9050919050565b620002768162000257565b81146200028257600080fd5b50565b60008135905062000296816200026b565b92915050565b6000819050919050565b620002b1816200029c565b8114620002bd57600080fd5b50565b600081359050620002d181620002a6565b92915050565b620002e28162000243565b8114620002ee57600080fd5b50565b6000813590506200030281620002d7565b92915050565b6000806000606084860312156200032457620003236200021e565b5b6000620003348682870162000285565b93505060206200034786828701620002c0565b92505060406200035a86828701620002f1565b9150509250925092565b6000602082840312156200037d576200037c6200021e565b5b60006200038d84828501620002c0565b91505092915050565b6000819050919050565b6000620003c1620003bb620003b58462000223565b62000396565b62000223565b9050919050565b6000620003d582620003a0565b9050919050565b6000620003e982620003c8565b9050919050565b620003fb81620003dc565b82525050565b6000602082019050620004186000830184620003f0565b92915050565b62000429816200029c565b82525050565b60006020820190506200044660008301846200041e565b92915050565b60006200045982620003c8565b9050919050565b6200046b816200044c565b82525050565b6200047c8162000243565b82525050565b600060608201905062000499600083018662000460565b620004a860208301856200041e565b620004b7604083018462000471565b949350505050565b7f4e487b7100000000000000000000000000000000000000000000000000000000600052601160045260246000fd5b6000620004fb826200029c565b91507fffffffffffffffffffffffffffffffffffffffffffffffffffffffffffffffff821415620005315762000530620004bf565b5b60018201905091905056fe60806040526040516200197d3803806200197d833981810160405281019062000029919062000293565b6001600081905550600073ffffffffffffffffffffffffffffffffffffffff168173ffffffffffffffffffffffffffffffffffffffff161415620000a4576040517f08c379a00000000000000000000000000000000000000000000000000000000081526004016200009b9062000350565b60405180910390fd5b600073ffffffffffffffffffffffffffffffffffffffff168373ffffffffffffffffffffffffffffffffffffffff16141562000117576040517f08c379a00000000000000000000000000000000000000000000000000000000081526004016200010e90620003c2565b60405180910390fd5b8160048190555080600660006101000a81548173ffffffffffffffffffffffffffffffffffffffff021916908373ffffffffffffffffffffffffffffffffffffffff16021790555082600760006101000a81548173ffffffffffffffffffffffffffffffffffffffff021916908373ffffffffffffffffffffffffffffffffffffffff160217905550505050620003e4565b600080fd5b600073ffffffffffffffffffffffffffffffffffffffff82169050919050565b6000620001db82620001ae565b9050919050565b6000620001ef82620001ce565b9050919050565b6200020181620001e2565b81146200020d57600080fd5b50565b6000815190506200022181620001f6565b92915050565b6000819050919050565b6200023c8162000227565b81146200024857600080fd5b50565b6000815190506200025c8162000231565b92915050565b6200026d81620001ce565b81146200027957600080fd5b50565b6000815190506200028d8162000262565b92915050565b600080600060608486031215620002af57620002ae620001a9565b5b6000620002bf8682870162000210565b9350506020620002d2868287016200024b565b9250506040620002e5868287016200027c565b9150509250925092565b600082825260208201905092915050565b7f3078302066756e64657200000000000000000000000000000000000000000000600082015250565b600062000338600a83620002ef565b9150620003458262000300565b602082019050919050565b600060208201905081810360008301526200036b8162000329565b9050919050565b7f3078302073616c65546f6b656e00000000000000000000000000000000000000600082015250565b6000620003aa600d83620002ef565b9150620003b78262000372565b602082019050919050565b60006020820190508181036000830152620003dd816200039b565b9050919050565b61158980620003f46000396000f3fe6080604052600436106100a75760003560e01c8063b64e96c111610064578063b64e96c1146101ac578063bf38bb63146101d7578063ca1d209d14610202578063cfae32171461022b578063d6ca214d14610256578063e30081a014610281576100a7565b80631834906c146100ac5780633013ce29146100d75780633ccfd60b146101025780635e2c19db1461011957806369536eef14610156578063b61e96a514610181575b600080fd5b3480156100b857600080fd5b506100c161029d565b6040516100ce9190610c19565b60405180910390f35b3480156100e357600080fd5b506100ec6102c3565b6040516100f99190610c93565b60405180910390f35b34801561010e57600080fd5b506101176102e9565b005b34801561012557600080fd5b50610140600480360381019061013b9190610cdf565b6105fe565b60405161014d9190610d27565b60405180910390f35b34801561016257600080fd5b5061016b61061e565b6040516101789190610d5b565b60405180910390f35b34801561018d57600080fd5b50610196610624565b6040516101a39190610c19565b60405180910390f35b3480156101b857600080fd5b506101c161064a565b6040516101ce9190610d5b565b60405180910390f35b3480156101e357600080fd5b506101ec610650565b6040516101f99190610d5b565b60405180910390f35b34801561020e57600080fd5b5061022960048036038101906102249190610da2565b610656565b005b34801561023757600080fd5b506102406107b5565b60405161024d9190610e68565b60405180910390f35b34801561026257600080fd5b5061026b6107f2565b6040516102789190610ea9565b60405180910390f35b61029b60048036038101906102969190610cdf565b610808565b005b600860009054906101000a900473ffffffffffffffffffffffffffffffffffffffff1681565b600760009054906101000a900473ffffffffffffffffffffffffffffffffffffffff1681565b6002600054141561032f576040517f08c379a000000000000000000000000000000000000000000000000000000000815260040161032690610f10565b60405180910390fd5b600260008190555060001515600160003373ffffffffffffffffffffffffffffffffffffffff1673ffffffffffffffffffffffffffffffffffffffff16815260200190815260200160002060009054906101000a900460ff161515146103ca576040517f08c379a00000000000000000000000000000000000000000000000000000000081526004016103c190610f7c565b60405180910390fd5b60018060003373ffffffffffffffffffffffffffffffffffffffff1673ffffffffffffffffffffffffffffffffffffffff16815260200190815260200160002060006101000a81548160ff0219169083151502179055506001600260008282829054906101000a900463ffffffff166104439190610fcb565b92506101000a81548163ffffffff021916908363ffffffff1602179055506104b033600554600760009054906101000a900473ffffffffffffffffffffffffffffffffffffffff1673ffffffffffffffffffffffffffffffffffffffff1661084c9092919063ffffffff16565b4760055411156104f5576040517f08c379a00000000000000000000000000000000000000000000000000000000081526004016104ec90611077565b60405180910390fd5b60003373ffffffffffffffffffffffffffffffffffffffff1660055460405161051d906110c8565b60006040518083038185875af1925050503d806000811461055a576040519150601f19603f3d011682016040523d82523d6000602084013e61055f565b606091505b50509050806105a3576040517f08c379a000000000000000000000000000000000000000000000000000000000815260040161059a9061114f565b60405180910390fd5b3373ffffffffffffffffffffffffffffffffffffffff167f676248c04a4f346666776199dbc6cabb7aab69ed01810212fb40c2df4256330d6005546040516105eb9190610d5b565b60405180910390a2506001600081905550565b60016020528060005260406000206000915054906101000a900460ff1681565b60045481565b600660009054906101000a900473ffffffffffffffffffffffffffffffffffffffff1681565b60055481565b60035481565b600660009054906101000a900473ffffffffffffffffffffffffffffffffffffffff1673ffffffffffffffffffffffffffffffffffffffff163373ffffffffffffffffffffffffffffffffffffffff16146106e6576040517f08c379a00000000000000000000000000000000000000000000000000000000081526004016106dd906111e1565b60405180910390fd5b610735333083600760009054906101000a900473ffffffffffffffffffffffffffffffffffffffff1673ffffffffffffffffffffffffffffffffffffffff166108d2909392919063ffffffff16565b80600360008282546107479190611201565b9250508190555060045460035461075e9190611286565b6005819055503373ffffffffffffffffffffffffffffffffffffffff167f87a8939dbe0592b9ef0f5727c53ba34a02d76a97ecc3f53f975ce3c74ec61141826040516107aa9190610d5b565b60405180910390a250565b60606040518060400160405280600d81526020017f48656c6c6f2c20776f726c642100000000000000000000000000000000000000815250905090565b600260009054906101000a900463ffffffff1681565b80600860006101000a81548173ffffffffffffffffffffffffffffffffffffffff021916908373ffffffffffffffffffffffffffffffffffffffff16021790555050565b6108cd8363a9059cbb60e01b848460405160240161086b9291906112b7565b604051602081830303815290604052907bffffffffffffffffffffffffffffffffffffffffffffffffffffffff19166020820180517bffffffffffffffffffffffffffffffffffffffffffffffffffffffff838183161783525050505061095b565b505050565b610955846323b872dd60e01b8585856040516024016108f3939291906112e0565b604051602081830303815290604052907bffffffffffffffffffffffffffffffffffffffffffffffffffffffff19166020820180517bffffffffffffffffffffffffffffffffffffffffffffffffffffffff838183161783525050505061095b565b50505050565b60006109bd826040518060400160405280602081526020017f5361666545524332303a206c6f772d6c6576656c2063616c6c206661696c65648152508573ffffffffffffffffffffffffffffffffffffffff16610a229092919063ffffffff16565b9050600081511115610a1d57808060200190518101906109dd9190611343565b610a1c576040517f08c379a0000000000000000000000000000000000000000000000000000000008152600401610a13906113e2565b60405180910390fd5b5b505050565b6060610a318484600085610a3a565b90509392505050565b606082471015610a7f576040517f08c379a0000000000000000000000000000000000000000000000000000000008152600401610a7690611474565b60405180910390fd5b610a8885610b4e565b610ac7576040517f08c379a0000000000000000000000000000000000000000000000000000000008152600401610abe906114e0565b60405180910390fd5b6000808673ffffffffffffffffffffffffffffffffffffffff168587604051610af0919061153c565b60006040518083038185875af1925050503d8060008114610b2d576040519150601f19603f3d011682016040523d82523d6000602084013e610b32565b606091505b5091509150610b42828286610b71565b92505050949350505050565b6000808273ffffffffffffffffffffffffffffffffffffffff163b119050919050565b60608315610b8157829050610bd1565b600083511115610b945782518084602001fd5b816040517f08c379a0000000000000000000000000000000000000000000000000000000008152600401610bc89190610e68565b60405180910390fd5b9392505050565b600073ffffffffffffffffffffffffffffffffffffffff82169050919050565b6000610c0382610bd8565b9050919050565b610c1381610bf8565b82525050565b6000602082019050610c2e6000830184610c0a565b92915050565b6000819050919050565b6000610c59610c54610c4f84610bd8565b610c34565b610bd8565b9050919050565b6000610c6b82610c3e565b9050919050565b6000610c7d82610c60565b9050919050565b610c8d81610c72565b82525050565b6000602082019050610ca86000830184610c84565b92915050565b600080fd5b610cbc81610bf8565b8114610cc757600080fd5b50565b600081359050610cd981610cb3565b92915050565b600060208284031215610cf557610cf4610cae565b5b6000610d0384828501610cca565b91505092915050565b60008115159050919050565b610d2181610d0c565b82525050565b6000602082019050610d3c6000830184610d18565b92915050565b6000819050919050565b610d5581610d42565b82525050565b6000602082019050610d706000830184610d4c565b92915050565b610d7f81610d42565b8114610d8a57600080fd5b50565b600081359050610d9c81610d76565b92915050565b600060208284031215610db857610db7610cae565b5b6000610dc684828501610d8d565b91505092915050565b600081519050919050565b600082825260208201905092915050565b60005b83811015610e09578082015181840152602081019050610dee565b83811115610e18576000848401525b50505050565b6000601f19601f8301169050919050565b6000610e3a82610dcf565b610e448185610dda565b9350610e54818560208601610deb565b610e5d81610e1e565b840191505092915050565b60006020820190508181036000830152610e828184610e2f565b905092915050565b600063ffffffff82169050919050565b610ea381610e8a565b82525050565b6000602082019050610ebe6000830184610e9a565b92915050565b7f5265656e7472616e637947756172643a207265656e7472616e742063616c6c00600082015250565b6000610efa601f83610dda565b9150610f0582610ec4565b602082019050919050565b60006020820190508181036000830152610f2981610eed565b9050919050565b7f616c72656164792077697468647261776e000000000000000000000000000000600082015250565b6000610f66601183610dda565b9150610f7182610f30565b602082019050919050565b60006020820190508181036000830152610f9581610f59565b9050919050565b7f4e487b7100000000000000000000000000000000000000000000000000000000600052601160045260246000fd5b6000610fd682610e8a565b9150610fe183610e8a565b92508263ffffffff03821115610ffa57610ff9610f9c565b5b828201905092915050565b7f547279696e6720746f207769746864726177206d6f7265207468616e20636f6e60008201527f7472616374206861730000000000000000000000000000000000000000000000602082015250565b6000611061602983610dda565b915061106c82611005565b604082019050919050565b6000602082019050818103600083015261109081611054565b9050919050565b600081905092915050565b50565b60006110b2600083611097565b91506110bd826110a2565b600082019050919050565b60006110d3826110a5565b9150819050919050565b7f4661696c656420746f207472616e73666572206d6f6e65792066726f6d20636f60008201527f6e74726163740000000000000000000000000000000000000000000000000000602082015250565b6000611139602683610dda565b9150611144826110dd565b604082019050919050565b600060208201905081810360008301526111688161112c565b9050919050565b7f4f6e6c79207265717565737465722063616e2063616c6c20746869732066756e60008201527f6374696f6e000000000000000000000000000000000000000000000000000000602082015250565b60006111cb602583610dda565b91506111d68261116f565b604082019050919050565b600060208201905081810360008301526111fa816111be565b9050919050565b600061120c82610d42565b915061121783610d42565b9250827fffffffffffffffffffffffffffffffffffffffffffffffffffffffffffffffff0382111561124c5761124b610f9c565b5b828201905092915050565b7f4e487b7100000000000000000000000000000000000000000000000000000000600052601260045260246000fd5b600061129182610d42565b915061129c83610d42565b9250826112ac576112ab611257565b5b828204905092915050565b60006040820190506112cc6000830185610c0a565b6112d96020830184610d4c565b9392505050565b60006060820190506112f56000830186610c0a565b6113026020830185610c0a565b61130f6040830184610d4c565b949350505050565b61132081610d0c565b811461132b57600080fd5b50565b60008151905061133d81611317565b92915050565b60006020828403121561135957611358610cae565b5b60006113678482850161132e565b91505092915050565b7f5361666545524332303a204552433230206f7065726174696f6e20646964206e60008201527f6f74207375636365656400000000000000000000000000000000000000000000602082015250565b60006113cc602a83610dda565b91506113d782611370565b604082019050919050565b600060208201905081810360008301526113fb816113bf565b9050919050565b7f416464726573733a20696e73756666696369656e742062616c616e636520666f60008201527f722063616c6c0000000000000000000000000000000000000000000000000000602082015250565b600061145e602683610dda565b915061146982611402565b604082019050919050565b6000602082019050818103600083015261148d81611451565b9050919050565b7f416464726573733a2063616c6c20746f206e6f6e2d636f6e7472616374000000600082015250565b60006114ca601d83610dda565b91506114d582611494565b602082019050919050565b600060208201905081810360008301526114f9816114bd565b9050919050565b600081519050919050565b600061151682611500565b6115208185611097565b9350611530818560208601610deb565b80840191505092915050565b6000611548828461150b565b91508190509291505056fea26469706673582212200527f547939d2712059fdada27ebc5c8d9df5d1f1a4958cbf950234a8a82666864736f6c63430008090033a2646970667358221220aa994fa79a1acf356e93fdf13d2e6027e8fa70ead8bdab3d136c2fff359ed8f064736f6c63430008090033",
  "linkReferences": {},
  "deployedLinkReferences": {}
}