{
  "_format": "hh-sol-artifact-1",
  "contractName": "Escrow",
  "sourceName": "contracts/Escrow.sol",
  "abi": [
    {
      "inputs": [
        {
          "internalType": "contract ERC20",
          "name": "_paymentToken",
          "type": "address"
        },
        {
          "internalType": "uint256",
          "name": "_numberOfTasks",
          "type": "uint256"
        },
        {
          "internalType": "address",
          "name": "_requester",
          "type": "address"
        }
      ],
      "stateMutability": "nonpayable",
      "type": "constructor"
    },
    {
      "anonymous": false,
      "inputs": [
        {
          "indexed": true,
          "internalType": "address",
          "name": "sender",
          "type": "address"
        },
        {
          "indexed": false,
          "internalType": "uint256",
          "name": "amount",
          "type": "uint256"
        }
      ],
      "name": "DidFund",
      "type": "event"
    },
    {
      "anonymous": false,
      "inputs": [
        {
          "indexed": true,
          "internalType": "address",
          "name": "sender",
          "type": "address"
        },
        {
          "indexed": false,
          "internalType": "uint256",
          "name": "amount",
          "type": "uint256"
        }
      ],
      "name": "DidWithdraw",
      "type": "event"
    },
    {
      "inputs": [
        {
          "internalType": "uint256",
          "name": "amount",
          "type": "uint256"
        }
      ],
      "name": "fund",
      "outputs": [],
      "stateMutability": "nonpayable",
      "type": "function"
    },
    {
      "inputs": [],
      "name": "greet",
      "outputs": [
        {
          "internalType": "string",
          "name": "",
          "type": "string"
        }
      ],
      "stateMutability": "pure",
      "type": "function"
    },
    {
      "inputs": [
        {
          "internalType": "address",
          "name": "",
          "type": "address"
        }
      ],
      "name": "hasWithdrawn",
      "outputs": [
        {
          "internalType": "bool",
          "name": "",
          "type": "bool"
        }
      ],
      "stateMutability": "view",
      "type": "function"
    },
    {
      "inputs": [],
      "name": "numberOfTasks",
      "outputs": [
        {
          "internalType": "uint256",
          "name": "",
          "type": "uint256"
        }
      ],
      "stateMutability": "view",
      "type": "function"
    },
    {
      "inputs": [],
      "name": "paymentToken",
      "outputs": [
        {
          "internalType": "contract ERC20",
          "name": "",
          "type": "address"
        }
      ],
      "stateMutability": "view",
      "type": "function"
    },
    {
      "inputs": [],
      "name": "pricePerTask",
      "outputs": [
        {
          "internalType": "uint256",
          "name": "",
          "type": "uint256"
        }
      ],
      "stateMutability": "view",
      "type": "function"
    },
    {
      "inputs": [],
      "name": "requester",
      "outputs": [
        {
          "internalType": "address",
          "name": "",
          "type": "address"
        }
      ],
      "stateMutability": "view",
      "type": "function"
    },
    {
      "inputs": [],
      "name": "taskPriceTotal",
      "outputs": [
        {
          "internalType": "uint256",
          "name": "",
          "type": "uint256"
        }
      ],
      "stateMutability": "view",
      "type": "function"
    },
    {
      "inputs": [],
      "name": "withdraw",
      "outputs": [],
      "stateMutability": "nonpayable",
      "type": "function"
    },
    {
      "inputs": [],
      "name": "withdrawerCount",
      "outputs": [
        {
          "internalType": "uint32",
          "name": "",
          "type": "uint32"
        }
      ],
      "stateMutability": "view",
      "type": "function"
    }
  ],
  "bytecode": "0x60806040523480156200001157600080fd5b50604051620015fc380380620015fc8339818101604052810190620000379190620002a1565b6001600081905550600073ffffffffffffffffffffffffffffffffffffffff168173ffffffffffffffffffffffffffffffffffffffff161415620000b2576040517f08c379a0000000000000000000000000000000000000000000000000000000008152600401620000a9906200035e565b60405180910390fd5b600073ffffffffffffffffffffffffffffffffffffffff168373ffffffffffffffffffffffffffffffffffffffff16141562000125576040517f08c379a00000000000000000000000000000000000000000000000000000000081526004016200011c90620003d0565b60405180910390fd5b8160048190555080600660006101000a81548173ffffffffffffffffffffffffffffffffffffffff021916908373ffffffffffffffffffffffffffffffffffffffff16021790555082600760006101000a81548173ffffffffffffffffffffffffffffffffffffffff021916908373ffffffffffffffffffffffffffffffffffffffff160217905550505050620003f2565b600080fd5b600073ffffffffffffffffffffffffffffffffffffffff82169050919050565b6000620001e982620001bc565b9050919050565b6000620001fd82620001dc565b9050919050565b6200020f81620001f0565b81146200021b57600080fd5b50565b6000815190506200022f8162000204565b92915050565b6000819050919050565b6200024a8162000235565b81146200025657600080fd5b50565b6000815190506200026a816200023f565b92915050565b6200027b81620001dc565b81146200028757600080fd5b50565b6000815190506200029b8162000270565b92915050565b600080600060608486031215620002bd57620002bc620001b7565b5b6000620002cd868287016200021e565b9350506020620002e08682870162000259565b9250506040620002f3868287016200028a565b9150509250925092565b600082825260208201905092915050565b7f3078302066756e64657200000000000000000000000000000000000000000000600082015250565b600062000346600a83620002fd565b915062000353826200030e565b602082019050919050565b60006020820190508181036000830152620003798162000337565b9050919050565b7f3078302073616c65546f6b656e00000000000000000000000000000000000000600082015250565b6000620003b8600d83620002fd565b9150620003c58262000380565b602082019050919050565b60006020820190508181036000830152620003eb81620003a9565b9050919050565b6111fa80620004026000396000f3fe608060405234801561001057600080fd5b506004361061009e5760003560e01c8063b64e96c111610066578063b64e96c114610137578063bf38bb6314610155578063ca1d209d14610173578063cfae32171461018f578063d6ca214d146101ad5761009e565b80633013ce29146100a35780633ccfd60b146100c15780635e2c19db146100cb57806369536eef146100fb578063b61e96a514610119575b600080fd5b6100ab6101cb565b6040516100b89190610a27565b60405180910390f35b6100c96101f1565b005b6100e560048036038101906100e09190610a85565b610412565b6040516100f29190610acd565b60405180910390f35b610103610432565b6040516101109190610b01565b60405180910390f35b610121610438565b60405161012e9190610b2b565b60405180910390f35b61013f61045e565b60405161014c9190610b01565b60405180910390f35b61015d610464565b60405161016a9190610b01565b60405180910390f35b61018d60048036038101906101889190610b72565b61046a565b005b6101976105c9565b6040516101a49190610c38565b60405180910390f35b6101b5610606565b6040516101c29190610c79565b60405180910390f35b600760009054906101000a900473ffffffffffffffffffffffffffffffffffffffff1681565b60026000541415610237576040517f08c379a000000000000000000000000000000000000000000000000000000000815260040161022e90610ce0565b60405180910390fd5b600260008190555060001515600160003373ffffffffffffffffffffffffffffffffffffffff1673ffffffffffffffffffffffffffffffffffffffff16815260200190815260200160002060009054906101000a900460ff161515146102d2576040517f08c379a00000000000000000000000000000000000000000000000000000000081526004016102c990610d4c565b60405180910390fd5b60018060003373ffffffffffffffffffffffffffffffffffffffff1673ffffffffffffffffffffffffffffffffffffffff16815260200190815260200160002060006101000a81548160ff0219169083151502179055506001600260008282829054906101000a900463ffffffff1661034b9190610d9b565b92506101000a81548163ffffffff021916908363ffffffff1602179055506103b833600554600760009054906101000a900473ffffffffffffffffffffffffffffffffffffffff1673ffffffffffffffffffffffffffffffffffffffff1661061c9092919063ffffffff16565b3373ffffffffffffffffffffffffffffffffffffffff167f676248c04a4f346666776199dbc6cabb7aab69ed01810212fb40c2df4256330d6005546040516104009190610b01565b60405180910390a26001600081905550565b60016020528060005260406000206000915054906101000a900460ff1681565b60045481565b600660009054906101000a900473ffffffffffffffffffffffffffffffffffffffff1681565b60055481565b60035481565b600660009054906101000a900473ffffffffffffffffffffffffffffffffffffffff1673ffffffffffffffffffffffffffffffffffffffff163373ffffffffffffffffffffffffffffffffffffffff16146104fa576040517f08c379a00000000000000000000000000000000000000000000000000000000081526004016104f190610e47565b60405180910390fd5b610549333083600760009054906101000a900473ffffffffffffffffffffffffffffffffffffffff1673ffffffffffffffffffffffffffffffffffffffff166106a2909392919063ffffffff16565b806003600082825461055b9190610e67565b925050819055506004546003546105729190610eec565b6005819055503373ffffffffffffffffffffffffffffffffffffffff167f87a8939dbe0592b9ef0f5727c53ba34a02d76a97ecc3f53f975ce3c74ec61141826040516105be9190610b01565b60405180910390a250565b60606040518060400160405280600d81526020017f48656c6c6f2c20776f726c642100000000000000000000000000000000000000815250905090565b600260009054906101000a900463ffffffff1681565b61069d8363a9059cbb60e01b848460405160240161063b929190610f1d565b604051602081830303815290604052907bffffffffffffffffffffffffffffffffffffffffffffffffffffffff19166020820180517bffffffffffffffffffffffffffffffffffffffffffffffffffffffff838183161783525050505061072b565b505050565b610725846323b872dd60e01b8585856040516024016106c393929190610f46565b604051602081830303815290604052907bffffffffffffffffffffffffffffffffffffffffffffffffffffffff19166020820180517bffffffffffffffffffffffffffffffffffffffffffffffffffffffff838183161783525050505061072b565b50505050565b600061078d826040518060400160405280602081526020017f5361666545524332303a206c6f772d6c6576656c2063616c6c206661696c65648152508573ffffffffffffffffffffffffffffffffffffffff166107f29092919063ffffffff16565b90506000815111156107ed57808060200190518101906107ad9190610fa9565b6107ec576040517f08c379a00000000000000000000000000000000000000000000000000000000081526004016107e390611048565b60405180910390fd5b5b505050565b6060610801848460008561080a565b90509392505050565b60608247101561084f576040517f08c379a0000000000000000000000000000000000000000000000000000000008152600401610846906110da565b60405180910390fd5b6108588561091e565b610897576040517f08c379a000000000000000000000000000000000000000000000000000000000815260040161088e90611146565b60405180910390fd5b6000808673ffffffffffffffffffffffffffffffffffffffff1685876040516108c091906111ad565b60006040518083038185875af1925050503d80600081146108fd576040519150601f19603f3d011682016040523d82523d6000602084013e610902565b606091505b5091509150610912828286610941565b92505050949350505050565b6000808273ffffffffffffffffffffffffffffffffffffffff163b119050919050565b60608315610951578290506109a1565b6000835111156109645782518084602001fd5b816040517f08c379a00000000000000000000000000000000000000000000000000000000081526004016109989190610c38565b60405180910390fd5b9392505050565b600073ffffffffffffffffffffffffffffffffffffffff82169050919050565b6000819050919050565b60006109ed6109e86109e3846109a8565b6109c8565b6109a8565b9050919050565b60006109ff826109d2565b9050919050565b6000610a11826109f4565b9050919050565b610a2181610a06565b82525050565b6000602082019050610a3c6000830184610a18565b92915050565b600080fd5b6000610a52826109a8565b9050919050565b610a6281610a47565b8114610a6d57600080fd5b50565b600081359050610a7f81610a59565b92915050565b600060208284031215610a9b57610a9a610a42565b5b6000610aa984828501610a70565b91505092915050565b60008115159050919050565b610ac781610ab2565b82525050565b6000602082019050610ae26000830184610abe565b92915050565b6000819050919050565b610afb81610ae8565b82525050565b6000602082019050610b166000830184610af2565b92915050565b610b2581610a47565b82525050565b6000602082019050610b406000830184610b1c565b92915050565b610b4f81610ae8565b8114610b5a57600080fd5b50565b600081359050610b6c81610b46565b92915050565b600060208284031215610b8857610b87610a42565b5b6000610b9684828501610b5d565b91505092915050565b600081519050919050565b600082825260208201905092915050565b60005b83811015610bd9578082015181840152602081019050610bbe565b83811115610be8576000848401525b50505050565b6000601f19601f8301169050919050565b6000610c0a82610b9f565b610c148185610baa565b9350610c24818560208601610bbb565b610c2d81610bee565b840191505092915050565b60006020820190508181036000830152610c528184610bff565b905092915050565b600063ffffffff82169050919050565b610c7381610c5a565b82525050565b6000602082019050610c8e6000830184610c6a565b92915050565b7f5265656e7472616e637947756172643a207265656e7472616e742063616c6c00600082015250565b6000610cca601f83610baa565b9150610cd582610c94565b602082019050919050565b60006020820190508181036000830152610cf981610cbd565b9050919050565b7f616c72656164792077697468647261776e000000000000000000000000000000600082015250565b6000610d36601183610baa565b9150610d4182610d00565b602082019050919050565b60006020820190508181036000830152610d6581610d29565b9050919050565b7f4e487b7100000000000000000000000000000000000000000000000000000000600052601160045260246000fd5b6000610da682610c5a565b9150610db183610c5a565b92508263ffffffff03821115610dca57610dc9610d6c565b5b828201905092915050565b7f4f6e6c79207265717565737465722063616e2063616c6c20746869732066756e60008201527f6374696f6e000000000000000000000000000000000000000000000000000000602082015250565b6000610e31602583610baa565b9150610e3c82610dd5565b604082019050919050565b60006020820190508181036000830152610e6081610e24565b9050919050565b6000610e7282610ae8565b9150610e7d83610ae8565b9250827fffffffffffffffffffffffffffffffffffffffffffffffffffffffffffffffff03821115610eb257610eb1610d6c565b5b828201905092915050565b7f4e487b7100000000000000000000000000000000000000000000000000000000600052601260045260246000fd5b6000610ef782610ae8565b9150610f0283610ae8565b925082610f1257610f11610ebd565b5b828204905092915050565b6000604082019050610f326000830185610b1c565b610f3f6020830184610af2565b9392505050565b6000606082019050610f5b6000830186610b1c565b610f686020830185610b1c565b610f756040830184610af2565b949350505050565b610f8681610ab2565b8114610f9157600080fd5b50565b600081519050610fa381610f7d565b92915050565b600060208284031215610fbf57610fbe610a42565b5b6000610fcd84828501610f94565b91505092915050565b7f5361666545524332303a204552433230206f7065726174696f6e20646964206e60008201527f6f74207375636365656400000000000000000000000000000000000000000000602082015250565b6000611032602a83610baa565b915061103d82610fd6565b604082019050919050565b6000602082019050818103600083015261106181611025565b9050919050565b7f416464726573733a20696e73756666696369656e742062616c616e636520666f60008201527f722063616c6c0000000000000000000000000000000000000000000000000000602082015250565b60006110c4602683610baa565b91506110cf82611068565b604082019050919050565b600060208201905081810360008301526110f3816110b7565b9050919050565b7f416464726573733a2063616c6c20746f206e6f6e2d636f6e7472616374000000600082015250565b6000611130601d83610baa565b915061113b826110fa565b602082019050919050565b6000602082019050818103600083015261115f81611123565b9050919050565b600081519050919050565b600081905092915050565b600061118782611166565b6111918185611171565b93506111a1818560208601610bbb565b80840191505092915050565b60006111b9828461117c565b91508190509291505056fea2646970667358221220af0821f5c1e0fc692c8f7b377db94e93cb452994db3f0672f96d6bf932d9f83964736f6c63430008090033",
  "linkReferences": {},
  "deployedLinkReferences": {}
}