{
  "_format": "hh-sol-artifact-1",
  "contractName": "EscrowFactory",
  "sourceName": "contracts/EscrowFactory.sol",
  "abi": [
    {
      "anonymous": false,
      "inputs": [
        {
          "indexed": true,
          "internalType": "contract Escrow",
          "name": "newEscrow",
          "type": "address"
        }
      ],
      "name": "CreatedNewEscrow",
      "type": "event"
    },
    {
      "inputs": [
        {
          "internalType": "contract ERC20",
          "name": "_paymentToken",
          "type": "address"
        },
        {
          "internalType": "uint256",
          "name": "_numberOfTasks",
          "type": "uint256"
        },
        {
          "internalType": "address",
          "name": "_requester",
          "type": "address"
        }
      ],
      "name": "createNewEscrow",
      "outputs": [],
      "stateMutability": "nonpayable",
      "type": "function"
    },
    {
      "inputs": [
        {
          "internalType": "uint256",
          "name": "",
          "type": "uint256"
        }
      ],
      "name": "escrowArray",
      "outputs": [
        {
          "internalType": "contract Escrow",
          "name": "",
          "type": "address"
        }
      ],
      "stateMutability": "view",
      "type": "function"
    },
    {
      "inputs": [],
      "name": "escrowArrayLength",
      "outputs": [
        {
          "internalType": "uint256",
          "name": "",
          "type": "uint256"
        }
      ],
      "stateMutability": "view",
      "type": "function"
    }
  ],
  "bytecode": "0x608060405234801561001057600080fd5b50611c57806100206000396000f3fe60806040523480156200001157600080fd5b5060043610620000465760003560e01c80638e1ea759146200004b57806392376e44146200006b578063d4e08ed414620000a1575b600080fd5b62000069600480360381019062000063919062000308565b620000c3565b005b62000089600480360381019062000083919062000364565b620001ca565b60405162000098919062000401565b60405180910390f35b620000ab6200020a565b604051620000ba91906200042f565b60405180910390f35b6000838383604051620000d69062000210565b620000e49392919062000482565b604051809103906000f08015801562000101573d6000803e3d6000fd5b5090506000819080600181540180825580915050600190039060005260206000200160009091909190916101000a81548173ffffffffffffffffffffffffffffffffffffffff021916908373ffffffffffffffffffffffffffffffffffffffff160217905550600160008154809291906200017c90620004ee565b91905055508073ffffffffffffffffffffffffffffffffffffffff167f628ec71710e3c8e44ee9bb9db1ab1927cca0739098f088667360b387b2ff3b0b60405160405180910390a250505050565b60008181548110620001db57600080fd5b906000526020600020016000915054906101000a900473ffffffffffffffffffffffffffffffffffffffff1681565b60015481565b6116e5806200053d83390190565b600080fd5b600073ffffffffffffffffffffffffffffffffffffffff82169050919050565b6000620002508262000223565b9050919050565b6000620002648262000243565b9050919050565b620002768162000257565b81146200028257600080fd5b50565b60008135905062000296816200026b565b92915050565b6000819050919050565b620002b1816200029c565b8114620002bd57600080fd5b50565b600081359050620002d181620002a6565b92915050565b620002e28162000243565b8114620002ee57600080fd5b50565b6000813590506200030281620002d7565b92915050565b6000806000606084860312156200032457620003236200021e565b5b6000620003348682870162000285565b93505060206200034786828701620002c0565b92505060406200035a86828701620002f1565b9150509250925092565b6000602082840312156200037d576200037c6200021e565b5b60006200038d84828501620002c0565b91505092915050565b6000819050919050565b6000620003c1620003bb620003b58462000223565b62000396565b62000223565b9050919050565b6000620003d582620003a0565b9050919050565b6000620003e982620003c8565b9050919050565b620003fb81620003dc565b82525050565b6000602082019050620004186000830184620003f0565b92915050565b62000429816200029c565b82525050565b60006020820190506200044660008301846200041e565b92915050565b60006200045982620003c8565b9050919050565b6200046b816200044c565b82525050565b6200047c8162000243565b82525050565b600060608201905062000499600083018662000460565b620004a860208301856200041e565b620004b7604083018462000471565b949350505050565b7f4e487b7100000000000000000000000000000000000000000000000000000000600052601160045260246000fd5b6000620004fb826200029c565b91507fffffffffffffffffffffffffffffffffffffffffffffffffffffffffffffffff821415620005315762000530620004bf565b5b60018201905091905056fe6080604052604051620016e5380380620016e5833981810160405281019062000029919062000293565b6001600081905550600073ffffffffffffffffffffffffffffffffffffffff168173ffffffffffffffffffffffffffffffffffffffff161415620000a4576040517f08c379a00000000000000000000000000000000000000000000000000000000081526004016200009b9062000350565b60405180910390fd5b600073ffffffffffffffffffffffffffffffffffffffff168373ffffffffffffffffffffffffffffffffffffffff16141562000117576040517f08c379a00000000000000000000000000000000000000000000000000000000081526004016200010e90620003c2565b60405180910390fd5b8160048190555080600660006101000a81548173ffffffffffffffffffffffffffffffffffffffff021916908373ffffffffffffffffffffffffffffffffffffffff16021790555082600760006101000a81548173ffffffffffffffffffffffffffffffffffffffff021916908373ffffffffffffffffffffffffffffffffffffffff160217905550505050620003e4565b600080fd5b600073ffffffffffffffffffffffffffffffffffffffff82169050919050565b6000620001db82620001ae565b9050919050565b6000620001ef82620001ce565b9050919050565b6200020181620001e2565b81146200020d57600080fd5b50565b6000815190506200022181620001f6565b92915050565b6000819050919050565b6200023c8162000227565b81146200024857600080fd5b50565b6000815190506200025c8162000231565b92915050565b6200026d81620001ce565b81146200027957600080fd5b50565b6000815190506200028d8162000262565b92915050565b600080600060608486031215620002af57620002ae620001a9565b5b6000620002bf8682870162000210565b9350506020620002d2868287016200024b565b9250506040620002e5868287016200027c565b9150509250925092565b600082825260208201905092915050565b7f3078302066756e64657200000000000000000000000000000000000000000000600082015250565b600062000338600a83620002ef565b9150620003458262000300565b602082019050919050565b600060208201905081810360008301526200036b8162000329565b9050919050565b7f3078302073616c65546f6b656e00000000000000000000000000000000000000600082015250565b6000620003aa600d83620002ef565b9150620003b78262000372565b602082019050919050565b60006020820190508181036000830152620003dd816200039b565b9050919050565b6112f180620003f46000396000f3fe6080604052600436106100a75760003560e01c8063b64e96c111610064578063b64e96c1146101ac578063bf38bb63146101d7578063ca1d209d14610202578063cfae32171461022b578063d6ca214d14610256578063e30081a014610281576100a7565b80631834906c146100ac5780633013ce29146100d75780633ccfd60b146101025780635e2c19db1461011957806369536eef14610156578063b61e96a514610181575b600080fd5b3480156100b857600080fd5b506100c161029d565b6040516100ce9190610adc565b60405180910390f35b3480156100e357600080fd5b506100ec6102c3565b6040516100f99190610b56565b60405180910390f35b34801561010e57600080fd5b506101176102e9565b005b34801561012557600080fd5b50610140600480360381019061013b9190610ba2565b61050a565b60405161014d9190610bea565b60405180910390f35b34801561016257600080fd5b5061016b61052a565b6040516101789190610c1e565b60405180910390f35b34801561018d57600080fd5b50610196610530565b6040516101a39190610adc565b60405180910390f35b3480156101b857600080fd5b506101c1610556565b6040516101ce9190610c1e565b60405180910390f35b3480156101e357600080fd5b506101ec61055c565b6040516101f99190610c1e565b60405180910390f35b34801561020e57600080fd5b5061022960048036038101906102249190610c65565b610562565b005b34801561023757600080fd5b50610240610701565b60405161024d9190610d2b565b60405180910390f35b34801561026257600080fd5b5061026b61073e565b6040516102789190610d6c565b60405180910390f35b61029b60048036038101906102969190610ba2565b610754565b005b600860009054906101000a900473ffffffffffffffffffffffffffffffffffffffff1681565b600760009054906101000a900473ffffffffffffffffffffffffffffffffffffffff1681565b6002600054141561032f576040517f08c379a000000000000000000000000000000000000000000000000000000000815260040161032690610dd3565b60405180910390fd5b600260008190555060001515600160003373ffffffffffffffffffffffffffffffffffffffff1673ffffffffffffffffffffffffffffffffffffffff16815260200190815260200160002060009054906101000a900460ff161515146103ca576040517f08c379a00000000000000000000000000000000000000000000000000000000081526004016103c190610e3f565b60405180910390fd5b60018060003373ffffffffffffffffffffffffffffffffffffffff1673ffffffffffffffffffffffffffffffffffffffff16815260200190815260200160002060006101000a81548160ff0219169083151502179055506001600260008282829054906101000a900463ffffffff166104439190610e8e565b92506101000a81548163ffffffff021916908363ffffffff1602179055506104b033600554600760009054906101000a900473ffffffffffffffffffffffffffffffffffffffff1673ffffffffffffffffffffffffffffffffffffffff166107989092919063ffffffff16565b3373ffffffffffffffffffffffffffffffffffffffff167f676248c04a4f346666776199dbc6cabb7aab69ed01810212fb40c2df4256330d6005546040516104f89190610c1e565b60405180910390a26001600081905550565b60016020528060005260406000206000915054906101000a900460ff1681565b60045481565b600660009054906101000a900473ffffffffffffffffffffffffffffffffffffffff1681565b60055481565b60035481565b600660009054906101000a900473ffffffffffffffffffffffffffffffffffffffff1673ffffffffffffffffffffffffffffffffffffffff163373ffffffffffffffffffffffffffffffffffffffff16146105f2576040517f08c379a00000000000000000000000000000000000000000000000000000000081526004016105e990610f3a565b60405180910390fd5b6000600860009054906101000a900473ffffffffffffffffffffffffffffffffffffffff1673ffffffffffffffffffffffffffffffffffffffff168260405161063a90610f8b565b60006040518083038185875af1925050503d8060008114610677576040519150601f19603f3d011682016040523d82523d6000602084013e61067c565b606091505b5050905081600360008282546106929190610fa0565b925050819055506004546003546106a99190611025565b6005819055503373ffffffffffffffffffffffffffffffffffffffff167f87a8939dbe0592b9ef0f5727c53ba34a02d76a97ecc3f53f975ce3c74ec61141836040516106f59190610c1e565b60405180910390a25050565b60606040518060400160405280600d81526020017f48656c6c6f2c20776f726c642100000000000000000000000000000000000000815250905090565b600260009054906101000a900463ffffffff1681565b80600860006101000a81548173ffffffffffffffffffffffffffffffffffffffff021916908373ffffffffffffffffffffffffffffffffffffffff16021790555050565b6108198363a9059cbb60e01b84846040516024016107b7929190611056565b604051602081830303815290604052907bffffffffffffffffffffffffffffffffffffffffffffffffffffffff19166020820180517bffffffffffffffffffffffffffffffffffffffffffffffffffffffff838183161783525050505061081e565b505050565b6000610880826040518060400160405280602081526020017f5361666545524332303a206c6f772d6c6576656c2063616c6c206661696c65648152508573ffffffffffffffffffffffffffffffffffffffff166108e59092919063ffffffff16565b90506000815111156108e057808060200190518101906108a091906110ab565b6108df576040517f08c379a00000000000000000000000000000000000000000000000000000000081526004016108d69061114a565b60405180910390fd5b5b505050565b60606108f484846000856108fd565b90509392505050565b606082471015610942576040517f08c379a0000000000000000000000000000000000000000000000000000000008152600401610939906111dc565b60405180910390fd5b61094b85610a11565b61098a576040517f08c379a000000000000000000000000000000000000000000000000000000000815260040161098190611248565b60405180910390fd5b6000808673ffffffffffffffffffffffffffffffffffffffff1685876040516109b391906112a4565b60006040518083038185875af1925050503d80600081146109f0576040519150601f19603f3d011682016040523d82523d6000602084013e6109f5565b606091505b5091509150610a05828286610a34565b92505050949350505050565b6000808273ffffffffffffffffffffffffffffffffffffffff163b119050919050565b60608315610a4457829050610a94565b600083511115610a575782518084602001fd5b816040517f08c379a0000000000000000000000000000000000000000000000000000000008152600401610a8b9190610d2b565b60405180910390fd5b9392505050565b600073ffffffffffffffffffffffffffffffffffffffff82169050919050565b6000610ac682610a9b565b9050919050565b610ad681610abb565b82525050565b6000602082019050610af16000830184610acd565b92915050565b6000819050919050565b6000610b1c610b17610b1284610a9b565b610af7565b610a9b565b9050919050565b6000610b2e82610b01565b9050919050565b6000610b4082610b23565b9050919050565b610b5081610b35565b82525050565b6000602082019050610b6b6000830184610b47565b92915050565b600080fd5b610b7f81610abb565b8114610b8a57600080fd5b50565b600081359050610b9c81610b76565b92915050565b600060208284031215610bb857610bb7610b71565b5b6000610bc684828501610b8d565b91505092915050565b60008115159050919050565b610be481610bcf565b82525050565b6000602082019050610bff6000830184610bdb565b92915050565b6000819050919050565b610c1881610c05565b82525050565b6000602082019050610c336000830184610c0f565b92915050565b610c4281610c05565b8114610c4d57600080fd5b50565b600081359050610c5f81610c39565b92915050565b600060208284031215610c7b57610c7a610b71565b5b6000610c8984828501610c50565b91505092915050565b600081519050919050565b600082825260208201905092915050565b60005b83811015610ccc578082015181840152602081019050610cb1565b83811115610cdb576000848401525b50505050565b6000601f19601f8301169050919050565b6000610cfd82610c92565b610d078185610c9d565b9350610d17818560208601610cae565b610d2081610ce1565b840191505092915050565b60006020820190508181036000830152610d458184610cf2565b905092915050565b600063ffffffff82169050919050565b610d6681610d4d565b82525050565b6000602082019050610d816000830184610d5d565b92915050565b7f5265656e7472616e637947756172643a207265656e7472616e742063616c6c00600082015250565b6000610dbd601f83610c9d565b9150610dc882610d87565b602082019050919050565b60006020820190508181036000830152610dec81610db0565b9050919050565b7f616c72656164792077697468647261776e000000000000000000000000000000600082015250565b6000610e29601183610c9d565b9150610e3482610df3565b602082019050919050565b60006020820190508181036000830152610e5881610e1c565b9050919050565b7f4e487b7100000000000000000000000000000000000000000000000000000000600052601160045260246000fd5b6000610e9982610d4d565b9150610ea483610d4d565b92508263ffffffff03821115610ebd57610ebc610e5f565b5b828201905092915050565b7f4f6e6c79207265717565737465722063616e2063616c6c20746869732066756e60008201527f6374696f6e000000000000000000000000000000000000000000000000000000602082015250565b6000610f24602583610c9d565b9150610f2f82610ec8565b604082019050919050565b60006020820190508181036000830152610f5381610f17565b9050919050565b600081905092915050565b50565b6000610f75600083610f5a565b9150610f8082610f65565b600082019050919050565b6000610f9682610f68565b9150819050919050565b6000610fab82610c05565b9150610fb683610c05565b9250827fffffffffffffffffffffffffffffffffffffffffffffffffffffffffffffffff03821115610feb57610fea610e5f565b5b828201905092915050565b7f4e487b7100000000000000000000000000000000000000000000000000000000600052601260045260246000fd5b600061103082610c05565b915061103b83610c05565b92508261104b5761104a610ff6565b5b828204905092915050565b600060408201905061106b6000830185610acd565b6110786020830184610c0f565b9392505050565b61108881610bcf565b811461109357600080fd5b50565b6000815190506110a58161107f565b92915050565b6000602082840312156110c1576110c0610b71565b5b60006110cf84828501611096565b91505092915050565b7f5361666545524332303a204552433230206f7065726174696f6e20646964206e60008201527f6f74207375636365656400000000000000000000000000000000000000000000602082015250565b6000611134602a83610c9d565b915061113f826110d8565b604082019050919050565b6000602082019050818103600083015261116381611127565b9050919050565b7f416464726573733a20696e73756666696369656e742062616c616e636520666f60008201527f722063616c6c0000000000000000000000000000000000000000000000000000602082015250565b60006111c6602683610c9d565b91506111d18261116a565b604082019050919050565b600060208201905081810360008301526111f5816111b9565b9050919050565b7f416464726573733a2063616c6c20746f206e6f6e2d636f6e7472616374000000600082015250565b6000611232601d83610c9d565b915061123d826111fc565b602082019050919050565b6000602082019050818103600083015261126181611225565b9050919050565b600081519050919050565b600061127e82611268565b6112888185610f5a565b9350611298818560208601610cae565b80840191505092915050565b60006112b08284611273565b91508190509291505056fea2646970667358221220566475cf38179a4307885367f4a63567adbe3485a831fa797998790b10cb797164736f6c63430008090033a2646970667358221220d9953eb265f8bd2ee19a631ec85ae689d54d5006285c0d39f437880c12d3aa1c64736f6c63430008090033",
  "linkReferences": {},
  "deployedLinkReferences": {}
}